:020000040800F2
:10000000808E0020050300080D0300080F03000880
:100010001103000813030008150300080000000086
:100020000000000000000000000000003D02000889
:100030001903000800000000D7020008E7020008CA
:100040001F0300081F0300081F0300081F03000808
:100050001F0300081F0300081F0300081F030008F8
:100060001F0300081F0300081F0300081F030008E8
:100070001F0300081F0300081F0300081F030008D8
:100080001F0300081F0300081F0300081F030008C8
:100090001F0300081F0300081F0300081F030008B8
:1000A0001F0300081F0300081F0300081F030008A8
:1000B0001F0300081F0300081F0300081F03000898
:1000C0001F0300081F0300081F0300081F03000888
:1000D0001F0300081F0300081F0300081F03000878
:1000E0001F0300081F0300081F0300081F03000868
:1000F0001F0300081F0300081F0300081F03000858
:100100000000000000000000000000001F030008C5
:100110001F0300081F0300081F0300081F03000837
:100120001F0300081F0300081F0300081F03000827
:100130001F0300081F03000800000000000000006B
:100140001F0300081F0300081F0300080000000031
:10015000000000000000000000000000000000009F
:1001600000000000000000001F0300081F0300083B
:100170001F03000800000000000000000000000055
:10018000000000001F03000800F002F800F042F831
:100190000AA090E8000C82448344AAF10107DA45E2
:1001A00001D100F037F8AFF2090EBAE80F0013F0F2
:1001B000010F18BFFB1A43F00103184764600000E9
:1001C00084600000103A24BF78C878C1FAD852077A
:1001D00024BF30C830C144BF04680C6070470000C1
:1001E0000023002400250026103A28BF78C1FBD840
:1001F000520728BF30C148BF0B6070471FB500F0E1
:1002000043FB9DE8030000F02AFA1FBD10B500F083
:10021000E6FA10BD00F067FA114603B401F026FEBD
:1002200003BCFFF7EBFF02F037F800F0AAFA03B4C3
:10023000FFF7ECFF03BC00F0EDF900001EF0040F27
:100240000CBFEFF30880EFF30980816911F8021CFD
:10025000002932D101B590E80F10E047BDE8005009
:10026000CCF80000244B93E80600914208BF704789
:100270001A6041B91EF0100F10D1204B186820F001
:10028000010018600AE02CE9F00F1EF0100F08BF03
:100290002CED108A81F822E0C1F838C0906B92F8FA
:1002A000221061F0FF0E1EF0100F08BFB0EC108A94
:1002B000B0E8F00F80F309887047114A136899423B
:1002C000FAD801B552F821C00FC8E047BDE8005088
:1002D000CCF80000704701B502F0A6FDBDE8014072
:1002E000EFF3098CBEE701B503F0B2FABDE80140B7
:1002F000EFF3098CB6E700001800002034EF00E0AF
:10030000B06100080948804709480047FEE7FEE75A
:10031000FEE7FEE7FEE7FEE7FEE7FEE7FEE7FEE7B5
:1003200004480549054A064B70470000351000088F
:100330008901000880880020808E0020808A0020AB
:10034000808A0020032A40F2308010F0030C00F075
:10035000158011F8013BBCF1020F624498BF11F8FF
:1003600001CB00F8013B38BF11F8013BA2F10402B8
:1003700098BF00F801CB38BF00F8013B11F0030330
:1003800000F0EE80083AC0F0088051F8043B083ACB
:1003900051F804CBA0E80810F5E7121D5CBF51F836
:1003A000043B40F8043BAFF30080D20724BF11F8B0
:1003B000013B11F801CB48BF11F8012B24BF00F815
:1003C000013B00F801CB48BF00F8012B70474FF00C
:1003D00000020429C0F0128010F0030C00F0F48039
:1003E000CCF1040CBCF1020F18BF00F8012BA8BF20
:1003F00020F8022BA1EB0C0100F0E6B85FEAC17C0B
:1004000024BF00F8012B00F8012B48BF00F8012B96
:1004100070477047704770470844401E491E884324
:1004200070470821001DF7E72DE9F04117460E46F9
:100430000446FFF7F6FFA042054633D9002F1CBF44
:1004400006F10C0001F0D0FC30467468F4B121686C
:10045000A94217D305F1080291423CBF616841608F
:1004600007D3626861194A602268521B0A604160C2
:100470002560002F1CBF06F10C0001F0E9FC201DD7
:10048000BDE8F08120466468002CE0D12946304662
:1004900000F0D1F80028D7D1002F1CBF06F10C00C6
:1004A00001F0D6FC0020BDE8F08110B5044600F054
:1004B000B7F801682046BDE810400122B4E770B5E6
:1004C00016460D46041F002808BF70BD002E1CBF35
:1004D00005F10C0001F088FC2B465868002818BF75
:1004E000A04238BF0346F8D31968CA18A24218BF01
:1004F0005C6003D122681C461144196021680A1906
:10050000824218BF606004D142686260006808449B
:100510002060002E1CBF05F10C0001F099FC70BD9D
:1005200010B5044600F07CF801682046BDE8104094
:100530000122C4E710B500F078F8006810BD10B5CE
:10054000044600F072F8046010BD10B5002000F001
:10055000BEF8FFF75BFEBDE81040012000F05AB87E
:1005600010B5203AC0F00B80B1E81850A0E8185040
:10057000B1E81850A0E81850203ABFF4F5AF5FEA90
:10058000027C24BFB1E81850A0E8185044BF18C935
:1005900018C0BDE810405FEA827C24BF51F8043BDC
:1005A00040F8043B08BF7047D20728BF31F8023B30
:1005B00048BF11F8012B28BF20F8023B48BF00F8C4
:1005C000012B70474FF0000200B513469446964643
:1005D000203922BFA0E80C50A0E80C50B1F1200156
:1005E000BFF4F7AF090728BFA0E80C5048BF0CC004
:1005F0005DF804EB890028BF40F8042B08BF704762
:1006000048BF20F8022B11F0804F18BF00F8012BD3
:100610007047000001491820ABBEFEE7260002002B
:1006200010B500F05BF8083010BD01F091BB7047C9
:1006300070477047704738B504460A46002069463F
:10064000AFF30080002808BF38BD0246009920465D
:1006500000F075F8012038BD012000F0B9B8F8B5F8
:10066000AFF30080054600200C46102000BF064670
:10067000A819A0420DD9324669460020AFF3008088
:10068000070008BF00F0A4F80098A04218BF054674
:10069000C419FFF7C5FF05600746F01D20F00700ED
:1006A0004619284600F00AF8B44208BFF8BDA21B5C
:1006B00031463868BDE8F84000F041B800210160DB
:1006C000C0E901100C3001F0A9BB1020704710B533
:1006D00000F066F8BDE8104000F05CB800487047D4
:1006E000A800002070477546FFF7F8FFAE460500EA
:1006F0006946534620F00700854618B020B5FFF73D
:100700000FFEBDE820404FF000064FF000074FF00D
:1007100000084FF0000BAC46ACE8C009ACE8C009DB
:10072000ACE8C009ACE8C00921F007018D4670476C
:10073000801A0844401E491E88431044704770B513
:10074000144605468C464368002B18BF634538BFE6
:100750001846F8D302681044604508D066466046E3
:1007600004220821FFF7E4FF811B8446641A29460E
:10077000CCF80040BDE8704000220CF10400FFF707
:100780009EBE10B50446AFF300802046BDE8104081
:10079000FFF74DBD002801D0FFF73CBF70470000B8
:1007A00010B5002102A000F022F8012010BD0000C9
:1007B000534947414252543A2041626E6F726D6113
:1007C0006C207465726D696E6174696F6E000000F3
:1007D00010B500F025F8BDE81040FFF7DBBF10B5FD
:1007E000FFF71EFF0068BDE8104000F048B870B584
:1007F00005460C460A2000E06D1C00F039F835B1C2
:1008000028780028F8D102E0641C00F031F814B117
:1008100020780028F8D1BDE870400A2000F028B800
:1008200010B5012805D0002103A0FFF7E0FF01204B
:1008300010BD09A1F8E7000053494752544D454DFA
:100840003A204F7574206F662068656170206D6571
:100850006D6F7279000000003A2048656170206D6C
:10086000656D6F727920636F727275707465640064
:1008700008B569468DF800000320ABBE08BD10B571
:100880000C3001F0C1FA10BD80B505F0DCFBF1EED3
:10089000100A4EF63C71CEF20001086080BD0000E7
:1008A00081B0009001B0704781B0009001B07047F6
:1008B00081B0009001B0704781B0009001B07047E6
:1008C00081B0009001B0704781B0009001B07047D6
:1008D00082B00190009102B07047000081B000909A
:1008E00001B070477047000070470000704700007B
:1008F0007047000084B0039002910192009304B00D
:100900007047000082B00190009102B07047000073
:1009100083B002900191009203B0704784B00390BD
:1009200002910192009304B07047000083B00290DE
:100930000191009203B0704783B002900191009240
:1009400003B0704781B0009001B0704782B0019051
:10095000009102B07047000082B00190009102B097
:100960007047000084B0039002910192009304B09C
:100970007047000083B002900191009203B070476D
:1009800081B0009001B0704782B00190009102B038
:100990007047000082B00190009102B070470000E3
:1009A00082B00190009102B07047000082B00190C7
:1009B000009102B07047000084B0039002918DF85E
:1009C0000720009304B0704783B002900191009219
:1009D00003B0704781B0009001B0704782B00190C1
:1009E000009102B07047000082B00190009102B007
:1009F0007047000082B00190009102B07047000083
:100A000081B0009001B0704782B00190009102B0B7
:100A10007047000082B00190009102B07047000062
:100A200081B0009001B0704781B0009001B0704774
:100A300082B00190009102B07047000081B0009038
:100A400001B0704781B0009001B0704781B0009054
:100A500001B0704782B00190009102B07047000071
:100A600081B0009001B0704782B00190009102B057
:100A70007047000083B002900191009203B070476C
:100A800081B0009001B0704782B00190009102B037
:100A9000704700007047000084B0039002910192FB
:100AA000009304B07047000081B0009001B070471F
:100AB00081B0009001B0704781B0009001B07047E4
:100AC00083B002900191009203B0704781B0009012
:100AD00001B0704781B0009001B0704782B00190C2
:100AE000009102B07047000082B00190009102B006
:100AF0007047000081B0EFF3058000900098002857
:100B000018BF012001B0704781B0EFF3058000905D
:100B10000098002818BF012001B0704781B0EFF3A2
:100B2000058000900098002818BF012001B0704790
:100B300081B0EFF3058000900098002818BF0120D5
:100B400001B0704781B0EFF3058000900098002855
:100B500018BF012001B0704783B0EFF310800190FF
:100B600001990120009049B9FFE7EFF3118002904D
:100B70000298002818BF01200090FFE7009800F0BD
:100B8000010003B07047000083B0EFF310800190C4
:100B900001990120009049B9FFE7EFF3118002901D
:100BA0000298002818BF01200090FFE7009800F08D
:100BB000010003B07047000083B0EFF31080019094
:100BC00001990120009049B9FFE7EFF311800290ED
:100BD0000298002818BF01200090FFE7009800F05D
:100BE000010003B07047000083B0EFF31080019064
:100BF00001990120009049B9FFE7EFF311800290BD
:100C00000298002818BF01200090FFE7009800F02C
:100C1000010003B07047000083B0EFF31080019033
:100C200001990120009049B9FFE7EFF3118002908C
:100C30000298002818BF01200090FFE7009800F0FC
:100C4000010003B07047000081B0EFF31480009002
:100C50009DF800100120884301B0704784B00390D4
:100C6000029103980299084401900198009000981D
:100C700004B0704781B00090009801B07047000048
:100C800080B584B003900398283001F051F90190A9
:100C90000198C0B1FFE70398C06A0290FFE702988D
:100CA00080B1FFE702980230012101F0D7F98DF8F9
:100CB00003009DF8030008B9FFE703E0029880688D
:100CC0000290ECE702E000200290FFE7029804B0F7
:100CD00080BD000080B586B0059004910598006B3A
:100CE000E0B3FFE70598006B039000200290FFE758
:100CF00003990020019051B1FFE70398C17804984F
:100D0000C27800209142B8BF01200190FFE701980E
:100D1000C00730B1FFE70398029003984068039042
:100D2000E6E703980499486002980499886003985C
:100D300020B1FFE704980399886003E004980599BF
:100D4000C862FFE7029820B1FFE704980299486063
:100D500003E0049805990863FFE70BE0049900207D
:100D600048600499886004980599C86204980599B8
:100D70000863FFE70598283001F034F906B080BD1C
:100D800082B0019000910098406828B1FFE7009878
:100D900041688068886004E0009880680199C862B2
:100DA000FFE70098806828B1FFE7009948688968E4
:100DB000486004E00098406801990863FFE702B0CA
:100DC000704700004EF21000CEF20000006870473D
:100DD00048F27810C2F20000007870B1FFE748F2E4
:100DE0007811C2F20001002008704EF60451CEF2D4
:100DF00000014FF080600860FFE74EF21001CEF274
:100E00000001086840F00100086070474FF0FF30B3
:100E10007047000084B002900191029820B9FFE76A
:100E20004FF0FF30039031E040F20000C2F20000CA
:100E300000680299B0FBF1F0013800900098B0F121
:100E4000807F04D3FFE74FF0FF3003901EE04EF6A3
:100E50002351CEF20001FF2008704EF21001CEF2B5
:100E600000010620086000984EF21401CEF2000145
:100E700008604EF21801CEF200010020086048F22E
:100E80007811C2F2000108700390FFE7039804B0E4
:100E90007047000080B584B04EF62250CEF20000BC
:100EA000FF210170007880F0FF000290029820B9C5
:100EB000FFE720208DF80F0005E00298B0FA80F0DF
:100EC0008DF80F00FFE79DF80F00C0F120000090A3
:100ED00000F022FF019001980099884204D3FFE7B7
:100EE000019801300090FFE70099FE2088404EF6FF
:100EF0001F51CEF20001087004B080BD4EF60451BF
:100F0000CEF200014FF080500860704781B08DF83C
:100F100003009DF80300C1062020002958BF60206F
:100F200001B0704785B000200490039002900190BA
:100F300041F20400C4F20200006800F00C000490CA
:100F40000498009040B1FFE7009804280ED0FFE716
:100F50000098082814D04CE040F20001C2F20001D1
:100F600041F20020C0F27A0008604CE040F200013B
:100F7000C2F2000141F20020C0F27A00086042E0B3
:100F800041F20400C4F20200016801F470110391FF
:100F9000006800F4803002900399022000EB914039
:100FA0000390029860B9FFE7039840F60011C0F281
:100FB0003D01484340F20001C2F20001086017E021
:100FC00041F22C00C4F20200006800F00F00013072
:100FD0000190019941F20020C0F27A00B0FBF1F0DB
:100FE0000399484340F20001C2F200010860FFE7A4
:100FF00009E040F20001C2F2000141F20020C0F21B
:101000007A000860FFE741F20400C4F202000068C1
:10101000C0B2010946F27010C0F60000405C0490B6
:10102000049A40F20001C2F200010868D040086052
:1010300005B070474EF68851CEF20001086840F4C2
:10104000700008607047000080B584B00390029182
:1010500001929DF804008007002814D4FFE79DF852
:101060000400C00738B1FFE703982830029900F068
:1010700003FF009006E003982830029900F018FF63
:101080000090FFE71BE00398806A00909DF8040041
:10109000C00730B1FFE700980299084088420AD1A2
:1010A000FFE79DF80400C00740B9FFE700980299E8
:1010B000084203D1FFE700200090FFE7FFE7009818
:1010C00004B080BD85B0049003910020029040F2EE
:1010D0000400C2F20000406C0190FFE7019900207B
:1010E000009049B1FFE701980169039A00209142FD
:1010F00098BF01200090FFE70098C00758B1FFE7B4
:10110000019801690398401A039001980290019890
:10111000C0680190E2E70398049908610298049975
:10112000886001980499C860019850B1FFE704985D
:10113000026901990869801A086104980199886018
:10114000FFE7029820B1FFE704980299C86006E023
:10115000049840F20401C2F200014864FFE705B0C0
:101160007047000081B000900098C06828B1FFE788
:1011700000998868C9688860FFE70098C06840F2F5
:101180000401C2F20001486401B070470000000091
:1011900080B584B08DED020B9DED020B9FED7C1BA5
:1011A00053EC112B51EC100B04F084FC41EC100BB0
:1011B00051EC100B04F0C0FBADF806000020ADF8B8
:1011C0000400BDF80420501CADF8040040F21E11CC
:1011D000C2F20001009154208854BDF80420501C34
:1011E000ADF8040065208854BDF804305A1CADF8F1
:1011F00004206D22CA54BDF804305A1CADF80420F6
:101200007022CA54BDF80420531CADF80430885431
:10121000BDF804305A1CADF804207222CA54BDF83F
:1012200004C00CF10103ADF80430612301F80C3067
:10123000BDF804C00CF10103ADF80430742301F8CB
:101240000C30BDF804C00CF10103ADF80430752377
:1012500001F80C30BDF8043003F1010CADF804C006
:10126000CA54BDF80420531CADF804308854BDF8AE
:101270000420501CADF804003A208854BDF8042026
:10128000501CADF8040020208854BDF90600B0F1D0
:10129000FF3F0CDCFFE7BDF80420501CADF8040054
:1012A00040F21E11C2F200012D208854FFE7BDF963
:1012B000060044F6D351C1F2620150FB01F18809E6
:1012C00000EBD1703030BDF80420511CADF8041093
:1012D00040F21E11C2F200018854BDF9060048F226
:1012E0001F52C5F2EB1250FB02F2500900EBD27014
:1012F0003030BDF80420531CADF804308854BDF9DB
:10130000060046F26762C6F2666250FB02F398106E
:1013100000EBD37050FB02FC4FEAAC0303EBDC7331
:1013200003EB8303A0EB43003030BDF8043003F13E
:10133000010CADF804C0C854BDF80430581CADF819
:1013400004002C20C854BDF9060050FB02F39A108B
:1013500002EBD37202EB8202A0EB42003030BDF808
:101360000420531CADF804308854BDF80420501CF0
:10137000ADF8040030208854BDF80420501CADF8AE
:1013800004000A20885404B080BD00BF00BF00BF25
:10139000000000000000244082B041F20001C4F2CD
:1013A0000201086840F48030086000200090FFE7E8
:1013B00041F20000C4F2020000688003002801D559
:1013C000FFE714E00098B0F5805F0BDDFFE741F226
:1013D0000001C4F20201086820F480300860012096
:1013E000019065E0FFE7009801300090E0E741F2EE
:1013F0000401C4F20201086840F4E810086041F2F8
:101400000001C4F20201086840F08070086000200A
:101410000090FFE741F20000C4F202000068800182
:10142000002801D5FFE718E00098B0F5805F0FDDD8
:10143000FFE741F20001C4F20201086820F48030A5
:101440000860086820F080700860022001902FE09A
:10145000FFE7009801300090DCE742F20001C4F29F
:101460000201086840F00200086041F20401C4F281
:101470000201086840F480600860086840F00200DB
:101480000860FFE741F20400C4F20200006800F0C7
:101490000C00082801D0FFE7F4E741F20001C4F294
:1014A0000201086820F00100086000200190FFE7B9
:1014B000019802B0704700008CB00B90684600F0B5
:1014C00037FAFFE74FF47A7000F006FF40F21D1084
:1014D000C2F200000078C007A0B9FFE740F21C117B
:1014E000C2F2000101200870684600F0FFF940F2E6
:1014F0000810C2F2000080ED000B90ED000BFFF72A
:1015000047FEFFE740F21C11C2F200010020087004
:10151000D8E7000084B0039002A8009000F0D2FB4E
:10152000009800F027FB00200190FFE740F6B8305C
:1015300000F0D2FE40F21C10C2F200000078C0079A
:1015400070B9FFE740F21D11C2F2000101200870DE
:1015500040F21E11C2F2000102A800F089FBFFE771
:1015600040F21D11C2F2000100200870DEE7000009
:1015700080B582B00190019800F052F940F6004128
:10158000C4F600010120086002B080BD0000000028
:1015900080B590B00EA907910D900D9808904FF06E
:1015A00043410F910E91FFF7E3FF089800F078F99F
:1015B000122000F091FE089800F032F9089800F02F
:1015C00079F972B60020ADF83200FFE7089800F014
:1015D00031F9A0B1FFE7BDF832000130ADF83200BB
:1015E000BDF8320042F21171884207DBFFE708982C
:1015F00062B641680E9100680F9006E1E6E70020B0
:10160000ADF83200FFE7089800F014F9A0B9FFE741
:10161000BDF832000130ADF83200BDF8320042F2C0
:101620001171884207DBFFE7089862B641680E91A6
:1016300000680F90E9E0E6E70020ADF83200FFE730
:10164000089800F0F7F878B1FFE7BDF832000130F4
:10165000ADF83200BDF8320042F21171884202DB6F
:10166000FFE762B6D1E0EBE700208DF830000B9089
:101670008DF82B00FFE79DF82B0004286ADCFFE7BC
:1016800007208DF82A00FFE79DF82A00FF285AD08E
:10169000FFE70020ADF82800ADF82600FFE7089826
:1016A00000F0C8F801460020069049B9FFE7BDF8F0
:1016B00026004FF6FF71401A18BF01200690FFE781
:1016C0000698C00730B1FFE7BDF826000130ADF83D
:1016D0002600E4E70020ADF83200FFE7089800F0AC
:1016E000A9F801460020059049B1FFE7BDF82800A0
:1016F0004FF6FF71401A18BF01200590FFE70598CB
:10170000C00730B1FFE7BDF828000130ADF8280070
:10171000E4E7BDF82800BDF8261088420CDDFFE79D
:101720009DF82A10012000FA01F39DF82B200BA947
:10173000885C18438854FFE7FFE79DF82A000138CA
:101740008DF82A00A0E7FFE79DF82B0001308DF807
:101750002B0090E762B69DF82C009DF82D309DF887
:101760002E209DF82F10184410440844C0B29DF854
:101770003010884243D1FFE707989DF82C1000EE07
:10178000101AB8EE400A80ED000A9DF82E009DF870
:101790002F10009100EE100AB8EE400A10EE100A69
:1017A00004F0B6FB0246009801920A46019942EC09
:1017B000101B8DED020B00EE100AB8EE400A10EE81
:1017C000100A04F0A5FB41EC100B9FED131B53EC2A
:1017D000112B51EC100B04F06DF99DED020B41EC57
:1017E000110B51EC110B53EC102B03F05BFE41EC91
:1017F000100B51EC100B03F023FE0F90FFE708993C
:101800000E9848600F980860FFE7079890ED000A6F
:10181000D0ED010A10B080BD9A9999999999B93F74
:1018200081B0009040F61841C4F600010120086024
:1018300001B0704782B0019000208DF8030040F69F
:101840001040C4F600000068C00720B1FFE7012087
:101850008DF8030003E000208DF80300FFE79DF8FA
:10186000030000F0010002B07047000081B000905A
:1018700040F60841C4F60001086840F00300086023
:1018800040F60441C4F60001086840F00100086019
:1018900040F60C41C4F600010868086001B07047CA
:1018A00081B0009040F62841C4F600010120086094
:1018B00001B0704781B0009040F60041C4F60001CD
:1018C0000020086001B0704780B582B00190019897
:1018D000009041F21402C4F20202116841F4801136
:1018E0001160FFF7C3FF009802B080BD80B584B0DF
:1018F00003900398009090ED040BC16881ED000BFC
:10190000FFF746FE8DED010ACDED020A029804F0C4
:10191000FFFA009A41EC100B82ED040B9068D1683D
:1019200092ED040B026813680122984704B080BD51
:1019300080B586B0059005980490FFF7C5FF20207C
:1019400000F0D6F900909FED160B9FED171B9FED51
:10195000182B00F0D5F800980499886008200190B1
:1019600000F0C6F9049A014601980023C3F6F0730B
:1019700002934B60002303930B60D16000F0B8F931
:10198000029B039902460498536011608261C26809
:101990005160116082695160116006B080BD00BF66
:1019A000000000000088C3407B14AE47E17A743F1A
:1019B000000000000000F03F80B592B0119010913F
:1019C000ADF83E208DED0C0B1198059000200B908A
:1019D0000A9009900890BDF83E0001286CD1FFE7FD
:1019E00040F21010C2F2000090ED000B9FED401B82
:1019F00053EC112B51EC100B04F0D1FA002855D107
:101A0000FFE7059890ED021B90ED040B51EC110BD4
:101A100053EC102B04F04EF841EC100B8DED080B3D
:101A200040F21010C2F2000090ED000B8DED060B9D
:101A30009DF81F0080F080008DF81F000698079920
:101A40009DED080B53EC102B03F0E0FD41EC100B67
:101A500003F0A2FA059880ED060B109890ED000BAC
:101A60009DED0C1B51EC110B53EC102B04930392C6
:101A700004F060F90246059802920A46029942EC87
:101A8000111B90ED060B51EC110B53EC102B04F0D5
:101A900011F8039A049B41EC100B51EC100B03F06E
:101AA00001FD41EC100B8DED0A0B04E09DED0C0BDC
:101AB0008DED0A0BFFE7FFE740F21010C2F20000C5
:101AC000009090ED000B9FED0C1B53EC112B51EC93
:101AD000100B03F0E7FC0246009801920A460199B8
:101AE00042EC101B80ED000B9DED0A0B12B080BD87
:101AF00000000000000000009A9999999999B93F57
:101B000080B58AB009908DED060B8DED041B8DED2F
:101B1000022B0998019000F021F8019846F28011FB
:101B2000C0F60001083101609DED060B80ED020B4F
:101B30009DED040B80ED040B9DED020B80ED060B7B
:101B40000AB080BD81B00090009846F28C11C0F6BA
:101B500000010831016001B07047000081B00090C1
:101B6000009846F29811C0F600010831016001B0FA
:101B70007047000010B583B0029041F21401C4F226
:101B80000201086840F40020086041F21801C4F224
:101B90000201086844F201021043086040F6200385
:101BA000C4F600030020186040F60804C4F60004E0
:101BB000216841F44071216040F6040EC4F6000E25
:101BC000DEF80010CEF8001040F60C0CC4F6000C45
:101BD000DCF80010CCF80010196841F4E02119601D
:101BE00040F60002C4F60002116841F40071116071
:101BF000216841F440612160DEF80010CEF8001049
:101C0000DCF80010CCF80010196841F4E00119600C
:101C1000116841F4006111604FF416510191019A6D
:101C20004AF20021C0F24A4191FBF2F1009143F6E1
:101C30000001C4F20101086043F60402C4F201028B
:101C4000106043F60802C4F201021060BDF8000003
:101C500043F60C02C4F201021060086840F00C0068
:101C60000860086840F00100086003B010BD000083
:101C700083B00290019100208DF80300FFE70198E6
:101C80009DF80310405CD0B1FFE7FFE743F61C006E
:101C9000C4F2010000684006002801D4FFE7F5E720
:101CA00001989DF80310405C43F62801C4F201013D
:101CB00008809DF8030001308DF80300DFE703B0D2
:101CC0007047000080B582B0019001980090FFF746
:101CD00039FF009846F2A411C0F6000108310160F6
:101CE00002B080BD40F21810C2F2000000687047D8
:101CF00010B50446002808BF012400BF2046FEF7A7
:101D0000D4FB002818BF10BDFFF7ECFF08B18047D7
:101D1000F4E7002010BD00004EF60C50CEF200009B
:101D20000068C0F30220704701A000F0A3F800BFD4
:101D300050757265207669727475616C2066756E77
:101D40006374696F6E2063616C6C656421000000D0
:101D500080B582B001F00EFFB8B3FFE701F0B2FE2C
:101D6000019000200090FFE70098032823D8FFE7A8
:101D7000009948F27C10C2F2000050F8210048B9E6
:101D8000FFE70198009A48F27C11C2F2000141F885
:101D90002200FFE7009948F27C10C2F2000050F8E0
:101DA00021000199884201D1FFE704E0FFE7009894
:101DB00001300090D8E70098042805D1FFE7019989
:101DC000042000F07DFCFFE702E004200090FFE724
:101DD000009800EB400148F28C10C2F2000000EBCA
:101DE000411002B080BD000080B582B0019001F0CA
:101DF000C1FE38B1FFE7019800684FF0FF3100F0F5
:101E000087FBFFE702B080BD80B582B001900198EA
:101E1000006800F0AFFB02B080BD000080B582B06A
:101E20000190002000F0D2FB019908600198006841
:101E300018B1FFE70120009006E000200090019912
:101E4000052000F03DFCFFE7009802B080BD0000D7
:101E500080B582B0019001F08DFE28B1FFE70198B6
:101E6000006800F0DFFBFFE702B080BD80B500F046
:101E70007FFA80BDFEF769FB10B585B00490039131
:101E8000049B039C53E8002F02EA0401A14203D003
:101E9000BFF32F8F002205E022EA040143E800107F
:101EA00000B1EFE7009202910190009805B010BDDB
:101EB00010B585B004900391049B039C53E8002F58
:101EC000224203D1BFF32F8F002205E022EA040152
:101ED00043E8001000B1F1E70092029101900098F0
:101EE00005B010BD84B00390039BD3E85F2F12B9F7
:101EF000BFF32F8F04E0511EC3E8501F00B1F4E779
:101F0000ADF8022002910190BDF8020004B07047C4
:101F100084B00390039B53E8002F511E43E8001048
:101F200000B1F8E7009202910190009804B0704768
:101F300084B00390039B53E8002F12B9BFF32F8F97
:101F400004E0511E43E8001000B1F4E70092029152
:101F50000190009804B0704710B585B00490ADF8BA
:101F60000E10049BBDF80E40D3E85F2F511C8C422D
:101F700000D80021C3E8501F00B1F5E7ADF80220FA
:101F800002910190BDF8020005B010BD10B585B0FA
:101F90000490ADF80E10049BBDF80E40D3E85F2FFF
:101FA000944202D8BFF32F8F04E0511CC3E8501FA6
:101FB00000B1F3E7ADF8022002910190BDF80200F4
:101FC00005B010BD84B00390039B53E8002F511C53
:101FD00043E8001000B1F8E70092029101900098E8
:101FE00004B0704784B00390039B53E8002F511C4A
:101FF00043E8001000B1F8E70092029101900098C8
:1020000004B0704784B00390039B53E8002F12B9CB
:10201000BFF32F8F04E0116843E8001000B1F4E72C
:10202000009202910190009804B0704710B585B0FD
:1020300004900391049B039C1A682260BFF35F8F96
:1020400053E8002F21689142F6D143E8004000B1E7
:10205000F2E702920191009005B010BD84B00390A8
:102060008DF80B10039A9DF80B30D2E84F1FC2E891
:10207000403F00B1F9E78DF8031001909DF803008F
:1020800004B0704780B58AB0089007910692059316
:10209000089800F03BFD0490049858B1FFE70498BD
:1020A0000078FA2806D1FFE7079818B1FFE70598EE
:1020B00048B1FFE704986FF003010191FEF74CFC73
:1020C000019809902FE00498FEF7DAFD0390039839
:1020D000F0B1FFE7079803990C31049A526AFEF7B2
:1020E00031F9069828B1FFE70398C078069908707F
:1020F000FFE704980399C860039800F07DFE00F0A4
:10210000EFFE04980799FEF769FC0020029007E0B3
:1021100004980799FEF74AFC6FF002000290FFE76F
:1021200002980990FFE709980AB080BD80B58AB08F
:10213000089007918DF81B200593089800F0E6FCA5
:102140000490049858B1FFE704980078FA2806D163
:10215000FFE7079818B1FFE7059848B1FFE7049833
:102160006FF003010191FEF7F7FB0198099036E04B
:1021700004980C3000F01AFC0390039820B3FFE79A
:1021800003980C300799049A526AFEF7DBF803991A
:10219000F920087003990020009088709DF81B00BA
:1021A0000399C87007980399486004980399886058
:1021B000039800F021FE00F093FE04980799FEF7C3
:1021C000E3FB0098029007E004980799FEF7E8FB0C
:1021D0006FF002000290FFE702980990FFE709986C
:1021E0000AB080BD80B584B040F20400C2F20000A5
:1021F000B0F85410ADF80A105630FFF773FEA8B1CE
:10220000FFE7BDF80A1040F20400C2F2000000909F
:102210005A30FFF7A1FE014600980391C06D039963
:1022200050F8210000F0F4FD019002E00020019040
:10223000FFE7019804B080BD80B586B0059040F2FC
:102240000400C2F20000B0F85410ADF80E10BDF852
:102250000E105630FFF79AFEBDF80E10884214DAC1
:10226000FFE7BDF80E1040F20400C2F2000001903A
:102270005830FFF771FE019904900598C96D049AD2
:1022800041F822000120029002E000200290FFE7C6
:10229000029806B080BD000080B584B00020019097
:1022A0000390FFF779F80290FEF73CFE00F060F82B
:1022B000019A41F2B940C0F60000114601F020FC3D
:1022C000019A41F21550C0F60000114601F018FCC9
:1022D00000F074F8FFE7FEE780B586B00290029840
:1022E000FEF7DEFAFEF706FC20B9FFE7FEF734FC46
:1022F00040B1FFE76FF005000090FEF7D9FA0098B3
:10230000019010E0029805900598049043F6AD30D6
:10231000C0F600000390DDF80CC0049800DF0490C4
:1023200004980190FFE7019806B080BD80B584B0A5
:10233000FEF7EAFB40B9FFE7FEF726FC20B9FFE70E
:10234000FEF782FC20B1FFE701F058FC01900BE0A2
:1023500043F6FD30C0F600000290DDF808C000DF53
:10236000039003980190FFE7019804B080BD00003E
:1023700080B584B000F0BEF9FEF7B4FAFEF7C4FBF6
:1023800020B9FFE7FEF700FC40B1FFE76FF0050062
:102390000090FEF799FA009801900BE043F6154083
:1023A000C0F600000290DDF808C000DF039003983B
:1023B0000190FFE7019804B080BD000080B584B0B3
:1023C000FEF794FAFEF7A0FB20B9FFE7FEF7DCFB6F
:1023D00040B1FFE76FF005000090FEF775FA009836
:1023E00001900BE043F60D70C0F600000290DDF89E
:1023F00008C000DF039003980190FFE7019804B044
:1024000080BD000080B58EB00490039102920193CC
:1024100004980399029A019BFEF7A4FAFEF77EFB4B
:1024200020B9FFE7FEF7C8FB40B1FFE70498039926
:10243000029A019BFFF726FE00901FE0049B039A7F
:10244000029901980D930C920B910A900D980990A6
:102450000C9808900B9807900A98069043F6E9703C
:10246000C0F600000590DDF814C009980899079A95
:10247000069B00DF099009980090FFE700980EB0D6
:1024800080BD000080B58EB0049003918DF80B20C4
:102490000193049803999DF80B20019BFEF78CFA99
:1024A000FEF73CFB20B9FFE7FEF786FB48B1FFE7EC
:1024B000049803999DF80B20019BFFF737FE0090CD
:1024C00022E0049B039A9DF80B1001980D930C9247
:1024D0008DF82F100A900D9809900C9808909DF88F
:1024E0002F0007900A98069044F2E930C0F60000E9
:1024F0000590DDF814C009980899079A069B00DF3B
:10250000099009980090FFE700980EB080BD000088
:1025100080B58AB00490039104980399FEF764FA99
:10252000FEF706FB20B9FFE7FEF75EFB48B1FFE7C9
:1025300004986FF005010191FEF77AFA0198029074
:1025400015E0049903980991089009980790089854
:10255000069044F24150C0F600000590DDF814C02A
:102560000798069900DF079007980290FFE7029806
:102570000AB080BD80B586B002900298FEF750FA8E
:10258000FEF7D6FA20B9FFE7FEF72EFB48B1FFE7CA
:1025900002986FF005010091FEF74AFA0098019049
:1025A00010E0029805900598049044F2B560C0F6DA
:1025B00000000390DDF80CC0049800DF049004983C
:1025C0000190FFE7019806B080BD000080B586B09D
:1025D00002900298FEF732FAFEF7AAFA20B9FFE756
:1025E000FEF702FB48B1FFE7002000906FF0050105
:1025F000FEF71EFA0098019010E0029805900598E9
:10260000049044F62500C0F600000390DDF80CC0ED
:10261000049800DF049004980190FFE7019806B049
:1026200080BD000080B586B002900298FEF70EFAD9
:10263000FEF77EFA20B9FFE7FEF7D6FA48B1FFE7CA
:1026400002986FF005010091FEF7F2F900980190F1
:1026500010E0029805900598049044F64510C0F6E5
:1026600000000390DDF80CC0049800DF049004988B
:102670000190FFE7019806B080BD000083B0029092
:102680000191029801380146009104280AD8009966
:10269000DFE801F003040506070004E003E002E0C0
:1026A00001E000E0FFE7FFE7FEE7000081B00090F7
:1026B000009801B07047000081B00090FFE7FEE78E
:1026C00080B582B00190009101980099FEF700F961
:1026D00001980099FFF7D2FF02B080BD40F20400DC
:1026E000C2F20000007A704740F20400C2F200001B
:1026F000007A70477047000040F20400C2F2000008
:10270000007A704780B58EB00C900B910A920C98AD
:1027100038B1FFE70B9820B1FFE70A98800850B165
:10272000FFE70C980B990A9A00230493FEF7E2F84E
:1027300004980D9089E00B980830069006980730B1
:1027400020F0070006900C980821FEF787FA089001
:10275000FFE708990868401A05900898406820F03B
:1027600003010598401A059005980699884201D3FF
:10277000FFE711E00898006808900898006850B9D1
:10278000FFE70C980B990A9A00230393FEF7B2F81F
:1027900003980D9059E0DCE7069800900C98FEF73E
:1027A00069FA009A01464868104448600C98019004
:1027B000FEF760FA0146019809680839FEF74EFAFB
:1027C00007900798406802900C98FEF753FA01466C
:1027D00002984968884207D2FFE70C98FEF74AFA48
:1027E000406807994860FFE70898406858B9FFE7D4
:1027F00006980A9908430899486008980821FEF746
:102800002DFA099018E00898416821F00301FEF7BD
:1028100025FA0790089800680799086006980A99B1
:1028200008430799486007980899086007980821A5
:10283000FEF714FA0990FFE70C980B990A9A099B86
:10284000FEF758F809980D90FFE70D980EB080BD7F
:1028500080B58CB00A9009910A9818B1FFE70998E1
:1028600048B9FFE70A98099900220592FEF75EF839
:1028700005980B904AE0099800210491FEF7EEF9C3
:1028800001460498089108990839089106900A9819
:102890000821FEF7E3F90790FFE7079808998842B7
:1028A00012D0FFE7079806900798006807900798EE
:1028B00048B9FFE70A98099900220392FEF736F813
:1028C00003980B9022E0E8E70798406820F00300A7
:1028D00002900A98FEF7CEF9029A01464868801ADB
:1028E0004860069820B9FFE707990020486004E097
:1028F0000798006806990860FFE70A98099901227D
:102900000192FEF713F801980B90FFE70B980CB0BB
:1029100080BD000080B588B006900591069870B122
:10292000FFE79DF81800400748B9FFE79DF814003D
:10293000400720B9FFE70598172809D8FFE7069850
:10294000059900220292FDF7F7FF0298079029E00F
:102950000698FEF78FF90490059804990860049989
:1029600010200090486006980821FEF777F9039040
:10297000069805990839FEF771F90099039A1060D5
:102980000398026800201060039A1268516003994E
:1029900048600698059901220192FDF7CDFF019844
:1029A0000790FFE7079808B080BD000080B584B0AD
:1029B0000290029840B9FFE7002100910846FDF718
:1029C000A1FF0098039013E002981430FFF71AFB60
:1029D0000190019828B1FFE702980430FFF7F2FA5E
:1029E000FFE702980199FDF78DFF01980390FFE73B
:1029F000039804B080BD000080B586B004900391B8
:102A0000049860B1FFE703980499C968884206D327
:102A1000FFE703980499096988420AD3FFE70498FD
:102A200003996FF003020292FDF772FF029805907E
:102A300011E0049814300399FFF7F8FA0498043071
:102A4000FFF766FA0498039900220192FDF760FFF0
:102A500001980590FFE7059806B080BD80B588B065
:102A60000690059104920393069848B1FFE70598F4
:102A700030B1FFE7049818B1FFE7039818B9FFE7F2
:102A80000020079033E00598069908600699002019
:102A9000486004980699886003980699C86003986E
:102AA00006994861039A0598049900FB012006994C
:102AB000086106980599049A039BFDF72FFF039878
:102AC0000290FFE705980138059050B1FFE70298A2
:102AD00004990844019001980299086001980290B5
:102AE000F0E702990020086001200790FFE70798AF
:102AF00008B080BD81B00090009801B07047000020
:102B000081B00090009801B07047000081B0009043
:102B1000009801B07047000080B588B00790079812
:102B2000807800284AD0FFE70798C068069006988A
:102B30000799FEF725F907990020087006980C30D0
:102B40000799FFF759FF06988068B0B3FFE706982A
:102B50000C30FFF72BFF0590059868B3FFE7069848
:102B600000F04AF900F0A2FC0490049800220092C0
:102B7000114600F049FE049800F086FD039003988A
:102B80004068029005980C300299069A526AFDF747
:102B9000D9FB0098059AF92111700599887003985E
:102BA00080680599C87006980599FEF793F806980D
:102BB0000299FDF7EFFEFFE7FFE74DE00798806819
:102BC000069007984068029006988068D0B3FFE7A7
:102BD000069880684078832834D1FFE706980299E8
:102BE000FDF7D8FE069800F007F900F05FFC0490AE
:102BF00004980022114600F007FE049800F044FDFE
:102C00000390039840680190019807990C31069A47
:102C1000526AFDF797FB0398806830B1FFE7079889
:102C2000C078039989680870FFE706980199FDF755
:102C3000D5FE07990020087006980C300799FFF719
:102C4000DBFE08E006980299FDF7A4FE06980799B6
:102C5000FEF740F8FFE7FFE708B080BD80B582B01F
:102C60004FF0FF30019046F2C800C0F60000826EBF
:102C7000C06E082101F06AFAFFF748FF014640F2F2
:102C80000400C2F20000C164C06C18B1FFE700206C
:102C90000190FFE7019802B080BD000081B0009074
:102CA000009801B07047000081B00090009801B01A
:102CB0007047000080B586B0059005980490FFE746
:102CC0000498002840D0FFE70498406903900498D6
:102CD000C0780007002834D5FFE70498002101766A
:102CE0000498FDF7B7FE0498806848B3FFE704989E
:102CF00000F088F800F0DAFB0290029800220192BE
:102D0000114600F081FD01980299049AD16004995E
:102D100008610298C06A049948610298C06A28B1A3
:102D2000FFE704980299C96A0861FFE704980299CD
:102D3000C8620498012101760498FDF765FEFFE75B
:102D4000FFE703980490BBE706B080BD80B586B06E
:102D5000059004910598C078800700284AD5FFE7C0
:102D60000598C0680290029890F821008DF8030041
:102D70000298C06A0390FFE70398C0788007002894
:102D80001ED5FFE703988068019001980499884256
:102D900004D1FFE7019880680190FFE7019870B1C6
:102DA000FFE7019890F920009DF90310884206DDA5
:102DB000FFE7019890F820008DF80300FFE7FFE798
:102DC000039840690390FFE703980028D4D1FFE7F8
:102DD000029890F920009DF90310884209D0FFE77E
:102DE0009DF80300029981F82000029800F0E2FBB0
:102DF000FFE7FFE706B080BD81B00090009801B00A
:102E00007047000081B00090009801B0704700004A
:102E100081B00090009801B07047000081B0009030
:102E2000009801B07047000080B588B0FFE7FFF759
:102E3000D9F90790079808B9FFE74CE007980078A0
:102E4000F13801460691082843D80699DFE801F0D9
:102E500005411141411D2941350040F20400C2F2F3
:102E60000000006E0590079800F0D0FB0599884798
:102E700030E040F20400C2F20000406E0490079877
:102E8000FFF714FC0499884724E040F20400C2F2E2
:102E90000000806E0390079800F044F8039988477B
:102EA00018E040F20400C2F20000C06E02900798E1
:102EB000FFF720FE029988470CE040F20400C2F2BE
:102EC0000000006F01900798FFF71AFE01998847EC
:102ED00000E0FFE7ABE7002000F012FA08B080BD89
:102EE00080B582B001900198FFF7A6F990B1FFE795
:102EF00040F20400C2F20000407A18B9FFE7FDF783
:102F0000FDFF06E040F20401C2F2000101208872D8
:102F1000FFE704E001990220FFF7D2FBFFE702B0D0
:102F200080BD000081B00090009801B070470000A3
:102F300080B586B00590059901204870059890F9F4
:102F40002000029040F20400C2F200001C3000F0A9
:102F500063FB0490049880680390FFE703990020C6
:102F6000019051B1FFE7039890F92010029A0020D8
:102F70009142C8BF01200190FFE70198C00730B11E
:102F8000FFE703980490039880680390E6E70498AD
:102F90000599C86003980599886005980499886028
:102FA000039820B1FFE705980399C860FFE70598EB
:102FB000FDF78CFD06B080BD85B0049003910398A9
:102FC000013050BBFFE70020029040F20400C2F243
:102FD0000000006B0190FFE7019830B1FFE7019816
:102FE0000290019800690190F6E703980499C8617E
:102FF000029804994861049900200861029820B160
:10300000FFE704980299086106E0049840F2040181
:10301000C2F200010863FFE749E00020029040F29D
:103020000400C2F20000C06A0190FFE7019900208D
:10303000009049B1FFE70198C169039A00209142CD
:1030400098BF01200090FFE70098C00758B1FFE744
:103050000198C1690398401A039001980290019861
:1030600000690190E2E703980499C8610298049905
:103070004861019804990861029820B1FFE704981B
:103080000299086106E0049840F20401C2F20001CE
:10309000C862FFE7019848B1FFE7039A0199C86940
:1030A000801AC861049801994861FFE7FFE705B0FD
:1030B0007047000081B000900098C0690130F0B9FD
:1030C000FFE70098006928B1FFE7009801694069AF
:1030D0004861FFE70098406940B1FFE7009908693F
:1030E0004969086100990020486107E0009800697B
:1030F00040F20401C2F200010863FFE723E00098F8
:10310000006958B1FFE700980169C269C8691044B5
:10311000C8610098016940694861FFE7009840690B
:1031200040B1FFE7009908694969086100990020EA
:10313000486107E00098006940F20401C2F2000112
:10314000C862FFE7FFE700990020C86101B070473F
:1031500080B586B040F20400C2F20000C06A05905B
:10316000059808B9FFE799E00599C8690138C86171
:103170000598C069002840F09180FFE7FFE70598B7
:1031800040780146039113281CD0FFE703983328A9
:103190001CD0FFE7039843281CD0FFE7039853286F
:1031A0001ED0FFE7039863282CD0FFE7039873280D
:1031B0002ED0FFE70398832830D0FFE703989328A9
:1031C00032D037E00598FDF76FFB34E00598FDF746
:1031D0006BFC30E0059800F0DBF9FDF771FB2AE0AD
:1031E000059800F0D5F9FFF719FE04900498FFF751
:1031F0005BFD0599FFF7AAFD0498FFF755FDFDF764
:10320000FFFB18E0059800F0C3F9FDF729FC12E078
:10321000059800F0BDF9FDF795FB0CE0059800F06E
:10322000B7F9FDF7ADFB06E0059800F0B1F9FDF741
:10323000D1FB00E0FFE70598029000F025FA014677
:1032400002980968FDF74AFC059800F087F905988F
:1032500000F00AFA059800690590FFE7059900203B
:10326000019039B1FFE70598C069B0FA80F04009D4
:103270000190FFE70198C00700287FF480AFFFE7C7
:10328000059820B1FFE7059900204861FFE7059800
:1032900040F20401C2F20001C862FFE706B080BD3F
:1032A00080B582B001900198C078C00720B9FFE7CF
:1032B000019800F071F81EE001990420487001990E
:1032C0000020C86040F20400C2F20000416B019A85
:1032D0009160406B40B1FFE7019840F20401C2F2F7
:1032E0000001496BC860FFE7019840F20401C2F297
:1032F00000014863FFE70198FDF7C2FB02B080BD03
:1033000080B584B00390FFF7EFF98DF80B0000F063
:103310009DF80190039810BBFFE740F20400C2F251
:103320000000406A00909DF80B00022816D1FFE7CC
:10333000009898B1FFE7009890F92000019991F961
:10334000201088420ADDFFE7009800F007F9019895
:10335000FFF7EEFD009800F009FAFFE719E09DF88D
:103360000B00022810D1FFE7039890F92000019983
:1033700091F92010884207DDFFE70198FFF7D8FD9B
:10338000039800F0F3F903E0039800F06DF9FFE70C
:10339000FFE704B080BD000080B582B001900199C4
:1033A00000204870019908700198807880070028F3
:1033B0001CD5FFE701988078C00600280BD5FFE7F1
:1033C00040F20400C2F20000D0F884000199096BB9
:1033D000FFF712FB09E040F20400C2F20000406F68
:1033E0000199096BFFF734FAFFE7FFE7019880784E
:1033F000C007E8B1FFE740F20400C2F20000D0F8D5
:10340000880050B1FFE740F20400C2F20000D0F89B
:1034100088000199FFF7F0FA09E040F20400C2F2D7
:103420000000D0F880000199FFF712FAFFE7FFE7EC
:1034300002B080BD40F20400C2F200004069704753
:1034400040F20400C2F200004069704740F20400FC
:10345000C2F200004069704740F20400C2F200006E
:103460004069704781B00090009801B0704700003B
:1034700080B582B001900198806958B1FFE701984A
:1034800080690022114600F0BFF901988069FDF7BC
:1034900013FBFFE701984078232805D1FFE7019847
:1034A000816800208861FFE702B080BD80B582B0EE
:1034B0000190019880680090009880680199886068
:1034C0000098806838B1FFE7019800F0A5F80099EE
:1034D0008968C860FFE700990020C860009802B0C2
:1034E00080BD000080B586B005900491049890F9E5
:1034F00020000190059800F08FF8039003988068F1
:103500000290FFE702990020009051B1FFE7029876
:1035100090F92010019A00209142A8BF012000904C
:10352000FFE70098C00730B1FFE7029803900298C8
:1035300080680290E6E703980499C86002980499AD
:103540008860049803998860029820B1FFE7049886
:103550000299C860FFE706B080BD000081B000900E
:103560000098C06888B1FFE700998868C9688860DA
:103570000098806828B1FFE700988168C068C8603B
:10358000FFE700990020C860FFE701B07047000026
:1035900082B0019001980090FFE700980078F12830
:1035A00004D1FFE70098C0680090F6E7009802B0E9
:1035B0007047000080B584B0039003980190FFE746
:1035C00001990020009041B1FFE701980078F1389F
:1035D000B0FA80F040090090FFE70098C00720B1E2
:1035E000FFE70198C0680190EAE70198FFF716FC31
:1035F0000290029840B1FFE70398FFF7AFFF0298EF
:103600000399FFF76FFFFFE704B080BD81B0009022
:10361000009801B07047000081B00090009801B0A0
:103620007047000080B582B001900198407833283F
:1036300018D1FFE70198416A90F82320FDF704FDB7
:103640000090009868B1FFE701980099002200F00F
:10365000DBF8019B586A93F82310009AFDF71CFAD7
:10366000FFE7FFE702B080BD80B582B0019001990D
:1036700001204870019940F20400C2F200001C30A1
:10368000FFF730FF02B080BD80B584B0039003988F
:10369000816B019190F82200FDF738FC01460198FA
:1036A00008440290029804B080BD000081B00090F0
:1036B000009840F20401C2F20001486101B0704775
:1036C00081B00090009840F20401C2F2000148610C
:1036D00001B0704780B584B000218DF80F1046F21C
:1036E000C800C0F600000290826D42F2B960C0F6D8
:1036F000000001F033FAFFF7B5FE0146029840F2F0
:103700000402C2F200029162406E20B3FFE746F26B
:10371000C800C0F60000406E8047D8B9FFE746F207
:10372000C800C0F60000C26D006E40F20401C2F293
:1037300000010191C96C01F011FAFFF793FE0146F7
:1037400001988164806C20B1FFE701208DF80F00A3
:10375000FFE7FFE703E001208DF80F00FFE79DF88A
:103760000F0000F0010004B080BD000080B582B001
:103770000190019902204870019840F20401C2F2C0
:10378000000188610198FDF7A5F902B080BD000035
:1037900080B584B08DF80E000291FEF7A5FF0228D7
:1037A00004D0FFE700208DF80F0028E040F204006D
:1037B000C2F20000406A20B9FFE700208DF80F0038
:1037C0001DE0FFF743FE019001980299FDF74CF9C7
:1037D0009DF80E000199487001980299FFF7ECFBE3
:1037E00040F20400C2F200001C30FFF75FFE0190BF
:1037F0000198FFF7BBFF01208DF80F00FFE79DF850
:103800000F0004B080BD000080B584B00390029129
:103810008DF8072003980299FDF760F90398FFF7E8
:1038200033FF00900298009908600398FFF742FC6C
:103830009DF80700C00720B1FFE70398FFF760FD80
:1038400003E00398FFF710FFFFE704B080BD00001E
:1038500080B584B0FDF7B6FA40F20401C2F200016F
:103860000291C8680130C860FFF772FC0020FFF7C2
:1038700047FD0298006D38B1FFE740F20400C2F244
:103880000000006D8047FFE740F20400C2F2000034
:10389000006C002862D0FFE740F20401C2F2000190
:1038A000886903900398C96B884213D0FFE7039897
:1038B00040F20401C2F20001C8630398C06940B934
:1038C000FFE740F20400C2F20000006C0399C861F7
:1038D000FFE7FFE70398C06928B1FFE70399C869CC
:1038E0000138C861FFE70398C069B0BBFFE7FEF786
:1038F000F5FE022830D1FFE740F20400C2F20000DA
:10390000406A0390039830B3FFE7039890F92000D2
:1039100040F20401C2F20001C96B91F92010884203
:1039200019D1FFE70398FFF719FE40F20400C2F235
:1039300000000190C06BFFF797FE0198C06BFDF788
:10394000C5F80398FFF712FF01980399C163006C53
:103950000399C861FFE7FFE7FFE7FFE704B080BD19
:1039600080B582B04FF0FF300190FFF777F960B972
:10397000FFE740F20401C2F2000143F6C510C0F6B1
:103980000000086500200190FFE7019802B080BDAB
:1039900086B0059005980190FFE7019803A90022E1
:1039A0004FF0FF33FEF72EFD0290029840B9FFE77B
:1039B00003980499FDF798F8039904988847FFE75E
:1039C000EBE7000080B586B040F20400C2F20000D0
:1039D000406C0490049808B9FFE75FE0FFF73CFDF6
:1039E00005900499086901380861FFE704990020EF
:1039F000019039B1FFE704980069B0FA80F04009FE
:103A00000190FFE70198C007002843D0FFE7049822
:103A1000FDF7A8FB40F20400C2F20000C06C04995C
:103A2000183100231A46FEF72DFD03900398E0B1EC
:103A3000FFE7FFF711FD029040F20400C2F2000020
:103A40008069FFF73DFE04990320FEF739FEFFF77A
:103A500003FD48B9FFE705980299884203D1FFE7C3
:103A600000200590FFE7FFE7FFE70498C0780128F2
:103A700005D1FFE704984169FDF724FB03E00499B1
:103A800001204870FFE740F20400C2F20000406CE1
:103A90000490ABE70598FFF713FEFFE706B080BD83
:103AA00082B0FCF7F7FF44F6E120C0F60000019079
:103AB000DDF804C000DF00204FF0FF31FCF7E4FF29
:103AC000FFE7FEE780B584B0FDF73CF820B9FFE7DB
:103AD000FDF7A2F820B1FFE701F034F801900BE008
:103AE00044F64530C0F600000290DDF808C000DF63
:103AF000039003980190FFE7019804B080BD000097
:103B000080B58CB004900391029204980399029AB4
:103B1000FCF7D6FFFDF716F820B9FFE7FDF77CF8B4
:103B200048B1FFE7002000906FF00501FCF7ACFF03
:103B3000009801901AE0049A039902980B920A9156
:103B400009900B9808900A9807900998069044F6F7
:103B50005D30C0F600000590DDF814C008980799A4
:103B6000069A00DF089008980190FFE701980CB0D2
:103B700080BD000080B548F67800C2F200000078F1
:103B800068B9FFE7FEF7D2FB022807DBFFE748F63C
:103B90007801C2F2000101200870FFE7FFE748F654
:103BA0007800C2F20000007880BD000080B586B0C9
:103BB0000490049840B9FFE76FF003000290FCF70F
:103BC00077FE0298059016E004991320FFF7E0FDB8
:103BD00030B1FFE70498FCF76FFE0020039007E088
:103BE0004FF0FF300190FCF763FE01980390FFE770
:103BF00003980590FFE7059806B080BD80B582B0B8
:103C0000FEF77AFD01900198FCF768FE019802B07A
:103C100080BD000080B58AB040F20400C2F200000E
:103C2000007A012805D1FFE7FCF75EFE002009902D
:103C300069E140F20400C2F20000007A40B1FFE7FF
:103C40004FF0FF300890FCF73FFE089809905AE1CA
:103C500046F2C801C0F60001C86840F20402C2F290
:103C60000002D065088AA2F8540088681064C86A07
:103C7000096BFEF74FFE60B1FFE746F2C800C0F6E1
:103C80000000C06A40F20401C2F20001C1F88000E5
:103C9000FFE746F2C801C0F6000148698969FEF7EE
:103CA00039FE58B1FFE746F2C800C0F6000040698F
:103CB00040F20401C2F20001486707E040F204014B
:103CC000C2F20001D1F880004867FFE746F2C80160
:103CD000C0F60001C869096AFEF71CFE58B1FFE78B
:103CE00046F2C800C0F60000C06940F20401C2F20A
:103CF0000001886707E040F20401C2F20001D1F838
:103D000080008867FFE746F2C801C0F60001486AF4
:103D1000896AFEF7FFFD58B1FFE746F2C800C0F61A
:103D20000000406A40F20401C2F20001C86707E0E7
:103D300040F20401C2F20001D1F88000C867FFE739
:103D400046F2C800C0F60000406BA0B1FFE746F2A3
:103D5000C800C0F600000790406B01688268C36825
:103D6000FEF77CFE0798406B40F20401C2F20001AE
:103D7000C1F88400FFE746F2C800C0F60000806B7F
:103D8000A0B1FFE746F2C800C0F600000690806BC5
:103D900001688268C368FEF761FE0698806B40F296
:103DA0000401C2F20001C1F88800FFE746F2C80032
:103DB000C0F60000C06BA0B1FFE746F2C800C0F635
:103DC00000000590C06B01688268C368FEF746FE7C
:103DD0000598C06B40F20401C2F20001C1F88C00EA
:103DE000FFE746F2C800C0F60000006CA0B1FFE794
:103DF00046F2C800C0F600000490006C01688268BA
:103E0000C368FEF72BFE0498006C40F20401C2F276
:103E10000001C1F89000FFE746F2C800C0F60000BC
:103E2000406CA0B1FFE746F2C800C0F60000039066
:103E3000406C01688268C368FEF710FE0398406C0E
:103E400040F20401C2F20001C1F89400FFE746F21B
:103E5000C800C0F60000806CA0B1FFE746F2C800C1
:103E6000C0F600000290806C01688268C368FEF7AB
:103E7000F5FD0298806C40F20401C2F20001C1F825
:103E80009800FFE746F2C800C0F60000C06CA0B181
:103E9000FFE746F2C800C0F600000190C06C016860
:103EA0008268C368FEF7DAFD0198C06C40F2040135
:103EB000C2F20001C1F89C00FFE746F2C800C0F65C
:103EC0000000006DA0B1FFE746F2C800C0F6000098
:103ED0000090006D01688268C368FEF7BFFD00981E
:103EE000006D40F20401C2F20001C1F8A000FFE73A
:103EF00040F20401C2F2000101200872FCF7F4FC58
:103F000000200990FFE709980AB080BD80B588B00D
:103F100040F20400C2F20000007A012808D0FFE756
:103F20006FF00600FCF7D0FC4FF0FF30059057E033
:103F3000FFF7D0FB40B9FFE74FF0FF300390FCF7ED
:103F4000C3FC039805904BE0FCF7A4FF46F2C800C1
:103F5000C0F60000406840F2E721C0F60001FCF71F
:103F600059FF40B1FFE74FF0FF300290FCF7ACFC87
:103F70000298059034E0FCF749FF40F20401C2F2D8
:103F8000000101910861FCF723FF01981C30FFF745
:103F90008DFA04900498FFF7E9FB46F2C800C0F6DA
:103FA00000000078C00740B1FFE7022007900798A3
:103FB00080F31488BFF36F8F07E003200690069804
:103FC00080F31488BFF36F8FFFE740F20401C2F261
:103FD000000102200872FCF78BFC00200590FFE72F
:103FE000059808B080BD000080B58EB00C900B9194
:103FF0000A9209930C98FEF789FD0890089840B141
:10400000FFE708980078FA2803D1FFE70B9848B932
:10401000FFE708986FF003010291FCF79DFC0298FE
:104020000D9090E00898FCF72BFE07900798002869
:104030005CD0FFE708980799FCF7A2FE0B98079958
:104040000C31089A526AFCF77DF90A9828B1FFE70B
:104050000798C0780A990870FFE708980B99FCF751
:10406000BDFC07990020087008980C300799FEF7EE
:10407000C3FC08988068B0B3FFE708980C30FEF7DF
:1040800095FC0790079868B3FFE70898FEF7B4FE21
:10409000FFF70CFA06900698002101910122FFF724
:1040A000B3FB0698FFF7F0FA059005984068049076
:1040B00007980C300499089A526AFCF743F9019862
:1040C000079AF921117007998870059880680799F7
:1040D000C87008980799FCF7FDFD08980499FCF74B
:1040E00059FCFFE7FFE70020039029E00998F0B1B1
:1040F000FFE708980B99099AFCF73CFC0999832083
:10410000FFF746FB58B1FFE70898FEF775FE0090F1
:10411000FFF790F901460098FFF7E4F903E00898EB
:10412000FCF72EFCFFE76FF00100039007E0089812
:104130000B99FCF73BFC6FF002000390FFE7FFE7F1
:1041400003980D90FFE70D980EB080BD80B596B036
:1041500010900F910E92109858B3FFE70F9840B34C
:10416000FFE710981490149820B9FFE720208DF8ED
:10417000570005E01498B0FA80F08DF85700FFE77B
:104180009DF8570006900F981290129820B9FFE7FB
:1041900020208DF84F0005E01298B0FA80F08DF8DD
:1041A0004F00FFE706989DF84F1008441F2809D8D4
:1041B000FFE7002005906FF00301FCF7CDFB0598A9
:1041C00011900EE10F98033020F003000C300A909C
:1041D00010980A99484309900E98002856D0FFE796
:1041E0000E98006807900E9880680D900E980069F0
:1041F0000C900E9840690B900D98A0B1FFE79DF8C8
:104200003400800728B9FFE70E98C068332809D822
:10421000FFE7002004906FF00801FCF79DFB049875
:104220001190DEE00DE00E98C06848B1FFE7002075
:1042300003906FF00801FCF78FFB03981190D0E01A
:10424000FFE70C98A0B1FFE79DF83000800728B980
:10425000FFE70B980999884209D2FFE700200290F6
:104260006FF00901FCF778FB02981190B9E00CE0BF
:104270000B9848B1FFE7002001906FF00901FCF7AF
:104280006BFB01981190ACE0FFE704E00020079081
:104290000D900C90FFE70D9810BBFFE740F2040073
:1042A000C2F20000D0F8A00050B1FFE740F20400D5
:1042B000C2F20000D0F8A000FEF778FB0D900BE0F2
:1042C00040F20400C2F20000D0F880003421012244
:1042D000FEF718FA0D90FFE701208DF8230003E0A8
:1042E00000208DF82300FFE70D98002842D0FFE75B
:1042F0000C9800283ED1FFE740F20400C2F2000013
:10430000C06F09990022FEF7FDF90C900C9828BBAC
:10431000FFE79DF82300C007E8B1FFE740F2040083
:10432000C2F20000D0F8A00050B1FFE740F2040054
:10433000C2F20000D0F8A0000D99FEF75DFB09E085
:1043400040F20400C2F20000D0F880000D99FEF7A0
:104350007FFAFFE7FFE700200D9004E00C98099931
:10436000FCF735F8FFE79DF8230040F002008DF8D8
:104370002300FFE70D9858B3FFE70D99FA20087066
:104380009DF823000D99887007980D9948600D9944
:10439000002088600F990D9A51620D9988620D99DD
:1043A000C8620D9908630D980C3010990A9A0C9BFD
:1043B000FEF754FB40F20401C2F2000142F619304C
:1043C000C0F6000008670D984168FCF7BFFA05E0E9
:1043D00000206FF00401FCF7BFFAFFE70D98119081
:1043E000FFE7119816B080BD80B58EB00C900B9190
:1043F0008DF82B2009930C98FEF788FB08900898FD
:1044000040B1FFE708980078FA2803D1FFE70B983E
:1044100048B9FFE708986FF003010291FCF79CFA96
:1044200002980D9089E00898806898B3FFE7089893
:104430008068407883282DD1FFE708980B99FCF716
:10444000A9FA0898FEF7D8FCFFF730F8069006980E
:1044500000210122FFF7D8F90698FFF715F905901A
:1044600005984068049004980B99089A526AFBF7E3
:1044700069FF0598806830B1FFE79DF82B0005992A
:1044800089680870FFE708980499FCF7A7FA0020EC
:1044900003904FE008980C30FEF788FA07900798D1
:1044A000E8B1FFE707980C300B99089A526AFBF7BE
:1044B00049FF0799F920087007990020019088703A
:1044C0009DF82B000799C87008980799FCF702FC23
:1044D00008980B99FCF75EFA0198039029E0099877
:1044E000F0B1FFE708980B99099AFCF76DFA099962
:1044F0009320FFF74DF958B1FFE70898FEF77CFCD1
:104500000090FEF797FF01460098FEF7EBFF03E0EF
:104510000898FCF75FFAFFE76FF00100039007E0EF
:1045200008980B99FCF73CFA6FF002000390FFE744
:10453000FFE7FFE703980D90FFE70D980EB080BDF1
:1045400080B588B0069005910698FEF7A7FB049009
:10455000FEF776FF0390039848B9FFE704986FF0E1
:104560000701FCF765FA4FF0FF3007909EE00498D2
:1045700028B1FFE704980078F52809D0FFE70498F0
:104580006FF003010191FCF753FA019807908DE059
:104590000498007E00BBFFE703980499C860049963
:1045A000002008610398C06A049948610398C06AB2
:1045B00028B1FFE704980399C96A0861FFE70498E6
:1045C0000399C8620499012008760498017EFCF7DB
:1045D0001BFA0020029066E00498C078C00700B380
:1045E000FFE70498C068039988421AD1FFE704984E
:1045F000007EFF2809D1FFE704986FF00F01FCF758
:1046000017FA6FF0020002900AE00499087E013068
:1046100008760498017EFCF7F7F900200290FFE786
:1046200040E00598B0B3FFE70498C0788007002801
:1046300017D5FFE70498C06890F92000039991F915
:10464000201088420CDAFFE7039890F820000499C4
:10465000C96881F820000498C068FEF7ABFFFFE747
:10466000FFE704980599FCF7C5F905995320FFF772
:104670008FF838B1FFE70498FEF7C4FB0399FEF703
:1046800031FF03E00498FCF7BBF9FFE76FF001008E
:10469000029006E00498FCF7D5F96FF00200029052
:1046A000FFE7FFE7FFE702980790FFE7079808B0EA
:1046B00080BD000080B588B006900698FEF7EEFA3F
:1046C0000590059828B1FFE705980078F52809D0EE
:1046D000FFE705986FF003010191FCF7A9F9019834
:1046E00007909BE00598007E00286CD0FFE70598B6
:1046F000C06803900598406928B1FFE705990869EB
:1047000049690861FFE70598006928B1FFE7059846
:1047100001694069486104E0059840690399C862ED
:10472000FFE7039890F821008DF80B000398C06A0A
:104730000490FFE70498F8B1FFE70498C078800779
:10474000002815D5FFE70498806880B1FFE704983A
:10475000806890F920009DF90B10884207DDFFE783
:104760000498806890F820008DF80B00FFE7FFE7C1
:10477000049840690490DDE7039890F920009DF9C2
:104780000B10884209D0FFE79DF80B00039981F8D0
:1047900020000398FEF70EFFFFE7FFE7059880680B
:1047A00068B1FFE70598FEF72DFBFEF77FFE03904B
:1047B00003986FF002010022FFF726F8EEE70020D1
:1047C000FEF79EFDFFE705990020087005988078A8
:1047D000C007E8B1FFE740F20400C2F20000D0F8E1
:1047E000940050B1FFE740F20400C2F20000D0F89C
:1047F00094000599FEF700F909E040F20400C2F2C6
:104800000000D0F880000599FEF722F8FFE7FFE7E7
:104810000598FCF709F900200790FFE7079808B012
:1048200080BD000080B588B00690069878B3FFE799
:104830000698006802900698406804900698806880
:1048400005900598A0B1FFE79DF81400800728B9EE
:10485000FFE70698C0681B2809D8FFE700200190F1
:104860006FF00801FCF7E4F80198079066E00DE0AE
:104870000698C06848B1FFE7002000906FF008017B
:10488000FCF7D6F80098079058E0FFE704E0002016
:10489000029004900590FFE7059810BBFFE740F2F7
:1048A0000400C2F20000D0F8940050B1FFE740F2DB
:1048B0000400C2F20000D0F89400FEF777F80590EB
:1048C0000BE040F20400C2F20000D0F880001C218E
:1048D0000122FDF717FF0590FFE701208DF80F007B
:1048E00003E000208DF80F00FFE70598E8B1FFE72F
:1048F0000599F52008709DF80F00059988700498B7
:104900000599C8700298059948600599002088604B
:104910000599C86005990861059948610599087667
:1049200005984168FCF776F805E000206FF0040177
:10493000FCF77EF8FFE705980790FFE7079808B0B7
:1049400080BD000080B588B006900698FEF7A6F9F5
:104950000590FEF775FD0390039848B9FFE70598A9
:104960006FF00701FCF764F84FF0FF300790B4E0F8
:10497000059828B1FFE705980078F52809D0FFE7EA
:1049800005986FF003010191FCF752F80198079028
:10499000A3E00598007E48B9FFE705986FF00E0187
:1049A000FCF746F86FF00200079096E00598C068A3
:1049B0000399884209D0FFE705986FF00D01FCF7D5
:1049C00037F86FF00200079087E00599087E0138FC
:1049D00008760598017EFCF73DF80598007E0028D2
:1049E00078D1FFE70598406928B1FFE70599086984
:1049F00049690861FFE70598006928B1FFE7059854
:104A000001694069486104E0059840690399C862FA
:104A1000FFE7039890F821008DF80B000398C06A17
:104A20000490FFE70498F8B1FFE70498C078800786
:104A3000002815D5FFE70498806880B1FFE7049847
:104A4000806890F920009DF90B10884207DDFFE790
:104A50000498806890F820008DF80B00FFE7FFE7CE
:104A6000049840690490DDE79DF80B00039981F8F4
:104A700020000598806848B3FFE70598FEF7C2F963
:104A8000FEF714FD03900398002200921146FEF7F2
:104A9000BBFE00980399059AD160059908610398B7
:104AA000C06A059948610398C06A28B1FFE7059874
:104AB0000399C96A0861FFE705980399C8620598D8
:104AC000012101760598FBF79FFFFFE70020FEF725
:104AD00017FCFFE700200790FFE7079808B080BDAC
:104AE00080B582B0FDF700FE022807D1FFE740F253
:104AF0000400C2F20000406A08B9FFE71FE0FEF7B9
:104B0000A5FC00900098C06AFEF7D4F80098FEF764
:104B1000AFFC40F20400C2F200001C30FEF7C6FCFD
:104B2000FEF724FEEFF30980019001980099886355
:104B30000020FEF7BBFD0098FEF7B2FBFFE702B0D6
:104B400080BD000080B582B0FEF780FC0190019826
:104B5000FBF7AEFF019802B080BD000080B594B0B5
:104B6000129011911092129848B9FFE70020069018
:104B70006FF00301FBF788FF06981390E4E11098AB
:104B8000002865D0FFE710980068099010984068E9
:104B90000E90109880680F90109800690D901098F2
:104BA00040690C90109880690B900F98A0B1FFE7B6
:104BB0009DF83C00800728B9FFE71098C06843289B
:104BC00009D8FFE7002005906FF00801FBF75CFFB4
:104BD00005981390B8E10DE01098C06848B1FFE760
:104BE000002004906FF00801FBF74EFF049813902B
:104BF000AAE1FFE70D9890B1FFE79DF83400400768
:104C000018B9FFE70C9848B9FFE7002003906FF050
:104C10000A01FBF739FF0398139095E1FFE70B9822
:104C200018B9FFE718200B9011E00B98012804DB5E
:104C3000FFE70B98392809DBFFE7002002906FF0AF
:104C40000B01FBF721FF029813907DE1FFE708E0DD
:104C5000002009900E900F900D900C9018200B9052
:104C6000FFE70C98C0B1FFE79DF83000400748B956
:104C7000FFE70C98482805D3FFE70C98B0F1FF3FF9
:104C800009DCFFE7002001906FF00A01FBF7FCFE52
:104C90000198139058E1FFE70F9810BBFFE740F22F
:104CA0000400C2F20000D0F8880050B1FFE740F2E3
:104CB0000400C2F20000D0F88800FDF777FE0F90E4
:104CC0000BE040F20400C2F20000D0F88000442162
:104CD0000122FDF717FD0F90FFE701208DF82B0053
:104CE00003E000208DF82B00FFE70F9800286FD01D
:104CF000FFE70D9800286BD1FFE70C9870BBFFE72A
:104D000046F2C800C0F60000406D0C9040F204006E
:104D1000C2F20000D0F88400A0B1FFE740F2040026
:104D2000C2F20000D0F88400FDF740FE0D900D980F
:104D300038B1FFE79DF82B0040F010008DF82B00F4
:104D4000FFE70AE040F20400C2F20000406F0C9955
:104D50000022FDF7D7FC0D90FFE70AE040F20400C7
:104D6000C2F20000406F0C990022FDF7CBFC0D90C1
:104D7000FFE70D9828BBFFE79DF82B00C007E8B1BF
:104D8000FFE740F20400C2F20000D0F8880050B102
:104D9000FFE740F20400C2F20000D0F888000F994B
:104DA000FDF72AFE09E040F20400C2F20000D0F84C
:104DB00080000F99FDF74CFDFFE7FFE700200F9003
:104DC000FFE79DF82B0040F002008DF82B00FFE775
:104DD0000F98002800F0A880FFE70F99F1200870D5
:104DE0000F99012048709DF82B000F9988700E983C
:104DF0000F99C87009980F9948600F99002000908A
:104E000088600F99C8600F9908610F9948610F99E0
:104E100088610F99C8610B990F9A82F820100B993D
:104E20000F9A82F821100F9AFD2182F822100F9913
:104E300081F823000F9948620F9988620F99C86220
:104E40000D980F9908630C980F9948630D980C9969
:104E5000084440380F99886312980F99C8630D98D9
:104E60000890089942F6A560CEF25A20086046F2F2
:104E7000C800C0F6000000784007002817D5FFE7FB
:104E80000C996FF0100000EB91000790FFE7079876
:104E900060B1FFE708980430089008994FF0CC30D3
:104EA0000860FFE7079801380790F0E7FFE70F98E1
:104EB000806B089000200790FFE707980D280AD024
:104EC000FFE70899079A002041F82200FFE70798BA
:104ED00001300790F1E7089943F6A120C0F60000E1
:104EE000486312980899886346F2C800C0F600002B
:104EF000006800F00100129901F0010100F028F8AB
:104F00000899C86311980899086240F20401C2F236
:104F1000000143F22560C0F6000008660F98426861
:104F2000C16BFBF7A7FD05E000206FF00401FBF764
:104F3000ABFDFFE70F9820B1FFE70F98FEF7E0F910
:104F4000FFE70F981390FFE7139814B080BD00009F
:104F500081B08DF803008DF802104FF0807001B021
:104F6000704703B401984100009850EAC12018BF6F
:104F700004204A0D18BF40F0010040F2FF72B2EB6E
:104F8000515F08BF40F00200012808BF052002B0B1
:104F9000704700000000000070B52DED020B2DEDF4
:104FA0000A8B82B00D98C40F20F00045AE488542B0
:104FB00048D3AE48854219D30C99C5F31300084372
:104FC00009D09DED0C0B02B0BDEC0A8B02B0BDE820
:104FD000704000F009BA002C14BF9FEDA50B9DEDA9
:104FE0000C0B02B0BDEC0A8B02B070BD9FEDA20BA2
:104FF00053EC102B9DED0C0B51EC100B00F058FEF8
:105000000AD20220FBF79BFA02B0BDEC0A8B02B079
:10501000BDE8704000F0F4B99FED990B53EC102BF4
:105020009DED0C0B51EC100B00F008FD0AD2022094
:10503000FBF785FA02B0BDEC0A8B02B0BDE8704008
:1050400000F0EEB990489FED92BBA8425CD2924826
:10505000854219D29148784400EBC40090ED000BD2
:1050600053EC102B9DED0C0B51EC100B00F062FE7D
:1050700041EC1A0B8A48784400EBC40090ED009B89
:10508000C4F10100041B36E09FED870B53EC102B9D
:105090009DED0C0B51EC100B00F00CFD41EC100BD6
:1050A0008348784400EBC40090ED001B51EC100BDA
:1050B00053EC112B00F0F6F900F03EFC044600F032
:1050C0006AFC41EC180B9FED7C0B53EC102B00F0AD
:1050D000F1FC9DED0C1B53EC112B00F01FFE41EC7D
:1050E0001A0B9FED770B51EC180B53EC102B00F0C3
:1050F000E1FC41EC190B51EC1A0B53EC192B00F0AD
:1051000019FECDE90C011BE06F48854217D29FEDD7
:10511000700B53EC102B9DED0C0B51EC100B00F0B1
:10512000C1F953EC1B2B00F0C3FD08D29DED0C0B15
:1051300053EC1B2B51EC100B00F0B4F96EE0002483
:105140009DED0C0B53EC102B51EC100B00F0B2FC4E
:1051500041EC180B60480521B0EE480AF0EE680AF1
:10516000784400F0C5F853EC182B51EC100B00F00C
:10517000A1FC9DED0C1B53EC112B00F0CFFD41EC7D
:10518000180B9FED570B5CB353EC182B51EC100B25
:1051900000F0D0FD9DED0C0B41EC1C0B53EC182BDB
:1051A00051EC100B00F086FC53EC1C2B00F02EFA97
:1051B00053EC192B00F0B2FD53EC1A2B00F0BAFDA2
:1051C00053EC1B2B00F0AAFDCDE900016FF47F70BA
:1051D000844226DB01EB045001909DED000B00E7BB
:1051E00053EC102B51EC180B00F0A4FD9DED0C0BB3
:1051F00041EC190B53EC182B51EC100B00F05AFC3E
:1052000053EC192B00F002FA9DED0C1B53EC112B03
:1052100000F090FD53EC1B2B00F080FD41EC100BD7
:10522000DFE608464FF07A5101EB04519FED2E0B5B
:10523000084453EC102B01909DED000B51EC100B2A
:1052400000F038FC0D4645EC100B044651EC100BF9
:10525000FFF787FE042808BF00F0E2F845EC104B8A
:10526000BFE6000000000000422E86400000F07FF4
:105270000000000000000000EF39FAFE422E8640D8
:1052800051302DD5104987C0422ED63F0000000076
:10529000000000000000F03FB2A2F03F2610000026
:1052A0001610000000000000FE822B654715F73F36
:1052B000CA0F0000000000000000E0FE422EE63FA2
:1052C000763C7935EF39EA3D0000303E00000000C1
:1052D0009C7500883CE4377E3C0F00000000000015
:1052E000000000000000004000000000000070010D
:1052F00070B504462DED028B4D1E00EBC500B0EEDF
:10530000408AF0EE608A90ED000B35F0060017D071
:1053100053EC182B51EC100B00F0CCFB41EC100BB4
:105320006D1E04EBC50090ED001B51EC100B53EC0F
:10533000112B00F0B7F841EC100B35F00600E7D167
:10534000022D36D0042D1CD0062D1CBFBDEC028BC7
:1053500070BD53EC182B51EC100B00F0ABFB94ED2F
:105360000A1B53EC112B00F09DF853EC182B00F0A6
:10537000A1FB94ED081B53EC112B00F093F841ECCA
:10538000100B53EC182B51EC100B00F093FB94ED29
:10539000061B53EC112B00F085F853EC182B00F092
:1053A00089FB94ED040B53EC102B00F07BF841ECDF
:1053B000100B53EC182B51EC100B00F07BFB94ED11
:1053C000021B53EC112B00F06DF853EC182B00F07E
:1053D00071FB94ED001B53EC112B00F063F8BDEC56
:1053E000028B41EC100B70BD10B553EC102B51EC3F
:1053F000100B00F057F841EC100B10BD000000003E
:105400009FED050B10B553EC102B51EC100B00F079
:1054100051FB41EC100B10BD0000000000000070BB
:105420009FED050B10B553EC102B51EC100B00F059
:1054300041FB41EC100B10BD00000000000000100B
:1054400021F0004201F00043A2F16052B2F5801F4A
:1054500028BFD2F17F6C0BD95FEA001C43EAC2027D
:1054600042EB507018BF704728BF20F00100704712
:10547000B2F5801FBCBF184670474FEA410C1CF5BF
:10548000001F02D2084600F0EBBD70B500F0BCFB77
:1054900000000089FFF7F6BF4FF00040A0F5800044
:1054A0007047000010B591EA030F48BF83F0004336
:1054B00000F14884841A71EB030C05D2121943EBF6
:1054C0000C03001B61EB0C014FEA1154A4EB135CBD
:1054D000DFF81CE11EEA430F18BF9EEA445F00F0AC
:1054E000748021EA045123EA0E0343F48013DCF1B3
:1054F000200E32D322FA0CFE10EB0E0023FA0CFE23
:1055000041EB0E01CCF1200E03FA0EFE10EB0E0063
:10551000CCF1200E51F10001B1F5801F32D201EB28
:10552000045112FA0EF2BDE8104058BF7047401CFB
:1055300038BF5FEA420218BF7047002814BF20F04E
:10554000010041F100014FEA410313F5001F38BF8C
:105550007047A1F1C04100F0A5BB012A43EB030253
:10556000ACF1200CDCF11F0E32BF4FF0000E23FA1D
:105570000CF310EB030041EB0451B4EB115FD0D0FE
:10558000A1EB045101F58011490801EB04515FEAD8
:1055900030000ED350F1000038BF12FA0EFE08D1D1
:1055A000BDE81040C9E7401C38BF5FEA4202CAD1DB
:1055B000C3E7BDE810404FEA410313F5001F38BFB1
:1055C0007047A1F1C04100F06DBB9EEA445F08D076
:1055D00011EA5E0FBDE8104004BF01F00041002059
:1055E0007047BDE8104070B500F00EFB64FBBE3E96
:1055F0000000E0FF491058BFC1F140415B1058BFA7
:10560000C3F140438B42EFF3008070472DE9C04166
:1056100030B4DFF8A4C23CEA111418BF3CEA1314FA
:1056200000F0ED801CEA111481EA030544EAD57408
:1056300018BF1CEA131500F0C880A4EB050404F1A0
:105640007F7404F500344FF0004545EAC12145EA76
:10565000C32341EA505143EA52534FEAC0204FEA74
:10566000C222994208BF904200F09D804FEA136524
:105670000FF24416765D4FEA134506FB05F7C7F1B6
:10568000807706FB07F74FEAD737A7FB0368764218
:10569000A7FB06CEC8F5803838BFA8F1010807FB84
:1056A00008E6A6FB028C4FF0000EE6FB03CEDCF111
:1056B000000CCEF1004E38BFAEF1010EA6FB0C5827
:1056C0004FF00007E6FB0E87A1FB08C6A0FB07CE44
:1056D00016EB0E064FF0000545F10005E1FB0765EE
:1056E00015F1E04E7EBFA4F580345FEA46066D41B9
:1056F00016F1800745F100054FEA172747EA0567CD
:105700004FEA15254FEA0666A6F1DE46B6F1805F40
:1057100020D9384605EBC47124F0010C01EB0C11C3
:10572000BCF1FE6F02D8F0BCBDE8008124425CBF32
:1057300001F5801E9EEAC47F02D4F0BCBDE8008162
:10574000244200F13980A1F1C041F0BCBDE8004124
:1057500000F0A8BA4FEAD02040EA41504FEAD121E8
:105760004FEAD22242EA43524FEAD323A7FB0286F2
:1057700007FB036605FB02661EEA0E0F58BFA6EB89
:105780000056B6EB00564FEA520E4EEAC37E18EBB7
:105790000E0E56EB530EBCD518EB02085E417F1C73
:1057A00055F10005B5E74FF480154FF000074FF0B5
:1057B00000064FF00008ACE701F1C04101F00041E4
:1057C0004FF00000F0BCBDE800810CEA131511EAAF
:1057D0000C1F00D00CE013EA0C1F00F026804FF0E5
:1057E000000081EA030101F00041F0BCBDE8008146
:1057F000F0BCBDE8004181EA030100F053BAF0BCFF
:10580000BDE8004170B500F0FFF900BF097EFC3E25
:1058100000F007B84FF0000081EA030101F00041F9
:10582000704781EA030100F03DBAF0BCBDE80041D9
:1058300022494FF000007047FFFDFBF9F7F5F4F245
:10584000F0EEEDEBE9E8E6E4E3E1E0DEDDDBDAD81B
:10585000D7D5D4D3D1D0CFCDCCCBCAC8C7C6C5C479
:10586000C2C1C0BFBEBDBCBBBAB9B8B7B6B5B4B390
:10587000B2B1B0AFAEADACABAAA9A8A8A7A6A5A47B
:10588000A3A3A2A1A09F9F9E9D9C9C9B9A9999983F
:105890009797969595949393929191908F8F8E8EE2
:1058A0008D8C8C8B8B8A898988888787868585846F
:1058B00084838382828181800000FF070000F87F5B
:1058C00051EA030C17D41CF5801F58BFBCF5801F8C
:1058D00000F10680994218BF704708BF9042704798
:1058E00007D711F5801F58BF13F5801F19D49942AF
:1058F0007047894270471CF5801F08D5BCF5801F92
:10590000F7D58B4218BF704708BF824270474FF4EB
:10591000001C1CEB410F38BF1CEB430F01D28B4224
:10592000704770B500F070F9922449004FF00051B3
:105930004FF08053FFF75EBE4FEA41034FEA5353E7
:10594000A3F58063D3F11E03C8BFD3F1210C0CDD96
:105950004FF0004242EAC12242EA505232FA03FCBE
:105960008CEAE17CACEBE1707047102BC4BF0020E7
:10597000704703F5787CBCF1FF3F04D06FF0004224
:1059800082EA2100704770B500F03EF94992248008
:1059900000207047F2E710F0004248BF4042B0FAE2
:1059A00080F310FA03F10AD0C3F11D0303F58063FD
:1059B00002EB03524FEA415002EBD12170474FF006
:1059C0000000704751EA030C17D41CF5801F58BF24
:1059D000BCF5801F00F10680994218BF704708BFD0
:1059E0009042704707D711F5801F58BF13F5801FED
:1059F00019D499427047894270471CF5801F08D519
:105A0000BCF5801FF7D58B4218BF704708BF824294
:105A100070474FF4001C1CEB410F38BF1CEB430FC9
:105A200001D28B42704770B500F0EEF89224490025
:105A30004FF080514FF00053FFF7DCBD51EA030CEB
:105A400017D41CF5801F58BFBCF5801F00F10680DD
:105A5000994218BF704708BF9042704707D711F5A9
:105A6000801F58BF13F5801F19D49942704789428F
:105A700070471CF5801F08D5BCF5801FF7D58B42F9
:105A800018BF704708BF824270474FF4001C1CEBE0
:105A9000410F38BF1CEB430F01D28B42704770B5EA
:105AA00000F0B2F8922449004FF000514FF08053BB
:105AB000FFF7A0BD70B5DFF848C11CEA111E1EBF7C
:105AC0001CEA13159EEA0C0F95EA0C0F00F06F808C
:105AD00081EA03044EEAD47EAE4421EA4C1123EA63
